:020000040000FA
:020000000528D1
:08000800212883168000860008
:100010009F008500030107308100831288308B0028
:100020008601850193018C018D019001910192015E
:100030000A309300D93081000130960023088500F2
:100040001E288B139400030E95003620930B2E2848
:100050000A3093007C2093202308B520D9308100FA
:100060000B11150E8300140E8B17090001081602E0
:100070000319532802081602031958280308160208
:1000800003195D28040816020319622805081602E0
:10009000031967280608160203196C2807081602B8
:1000A0000319712876280608003C9700960A7B28D9
:1000B0000608003C9800960A7B280608003C990038
:1000C000960A7B280608003C9A00960A7B280608B8
:1000D000003C9B00960A7B280608003C9C00960A80
:1000E0007B280608003C9D00960A7B280608003CF9
:1000F0009E0001089600080017089807980C190838
:100100009A079A0C1B089C079C0C1D089E079E0CC6
:1001100018089A079A0C1C089E079E0C1A089E073E
:100120001E0CA50008000130A6000130A700013018
:10013000A8001F08A000250824029F00A10720088E
:100140001F02A20026088C001F088D00C920A307EB
:1001500027088C0021088D00C920A30728088C00DF
:1001600022088D00C920A3070800831288000B080D
:10017000800083168B13081555308900AA3089003A
:1001800088148818C12808110812831200088B00EF
:1001900008008E018F010C08031908000D080319CF
:1001A00008000F080C078F0003188E0A8D0BD1284A
:0801B0008F0092008D01080090
:02400E00F13F80
:024200000000BC
:00000001FF
