:020000040000FA
:020000001928BD
:040002000034003492
:0800080033288C01860A080070
:1000100001308C0008009101900106088F0003193F
:100020002B281008050790000318910C8F0B11283E
:1000300008008316073086011F30850107308100D4
:100040008312A0308B000230850000308600D8304B
:100050008E0064308D000C1805200B2095002B2895
:100060000E30810008009200030E930030208D0BAB
:100070003328082064308D000B113E28130E8300B6
:06008000920E120E0900B1
:02400E00F13F80
:00000001FF
